S01B0000706F636B65742D626F742D6669726D776172652E7372656387
S11300000C9434000C9451000C9451000C94510045
S11300100C9451000C9446070C9451000C9451001C
S11300200C9451000C9451000C9451000C94510008
S11300300C9451000C9447020C9451000C94510000
S11300400C9451000C9451000C9451000C945100E8
S11300500C9451000C9451000C9451000C945100D8
S11300600C9451000C94510011241FBECFEFD8E022
S1130070DEBFCDBF11E0A0E0B1E0E8EFF2E302C0E3
S113008005900D92AA31B107D9F722E0AAE1B1E0B7
S113009001C01D92AC33B207E1F70E9453000C94E7
S11300A07A190C940000CF93DF9300D000D01F92F4
S11300B0CDB7DEB70E942B020E9473130E947D010C
S11300C00E94F3030E9450030E94C0020E94D001C8
S11300D0C12CD12C760110E030ED432E37E0532EA5
S11300E0612C712CB701A60197E076956795579519
S11300F047959A95D1F788E194EEA3E0B0E08C1986
S11301009D09AE09BF0927E0B695A79597958795F0
S11301102A95D1F717FD05C0B42EA52E962E872E4D
S113012004C0B82EA92E9A2E8B2E8EE3810F880F31
S11301308D831C8200E09E012F5F3F4FAE014E5F16
S11301405F4FBE016D5F7F4F8D819C81890F0E943F
S11301504413AB81B0E02B2D3A2D492D582D0E942C
S11301607615A30192010E944515322E2B83AA8194
S1130170B0E02B2D3A2D492D582D0E947615A30160
S113018092010E944515222E2A83A981B0E02B2DCD
S11301903A2D492D582D0E947615A30192010E94F3
S11301A045152983422D632D802F0E94D8020E9479
S11301B005030F5F2C81285D2C83053009F0BBCF2C
S11301C01F5F88EEC80E83E0D81EE11CF11C1F3FA0
S11301D009F088CF0E94F80210E0212F40E060E08F
S11301E080E00E94D8020E9405038FE19EE40197FB
S11301F0F1F700C000001E5F103479F70E94F80286
S113020020E440E060E080E00E94D8020E94050300
S113021000E085E0E82EF12C0E94D301882309F444
S113022069C00E94D7014B015C019FE728E381E08C
S1130230915020408040E1F700C0000010E00E948F
S1130240D3018823D9F00E94D701DC01CB0188199E
S11302509909AA09BB09893E9340A105B10578F320
S113026010E020E440E060E0812F0E94D8021F5F8C
S11302701530B9F70E94050311E0E1CF0E94F8029E
S11302800E940503802F112329F10E94BB120E94B2
S1130290F8020E940503011103C00E949F0F13C0BE
S11302A0013019F40E945E0D0EC0023019F40E9450
S11302B0760A09C0033019F40E94461204C00430BF
S11302C011F40E94940E80E00E94490480E00E9490
S11302D0900406C090E00196B7010E943115082FE2
S11302E00E94F80220E440E060E0802F0E94D802DF
S11302F00E9405030E94F6128FCFEAE7F0E08081A6
S113030080688083808187608083089590917A00DB
S113031096FDFCCF90917C00907F90937C00893077
S113032028F490917C00892B80937C00089580911F
S11303307A00806480937A0080917A0086FDFCCFF5
S11303408091780090917900089580E00E94860160
S11303500E94970190933601809335019C01A4EE8D
S1130360BCE00E9467159B01AC018AE05695479555
S1130370379527958A95D1F7ACE4B9E00E947615B4
S11303802EE437E040E050E00E94451530933801F8
S11303902093370108958091370190913801089591
S11303A02098289A089583B18095817008952FB775
S11303B0F8946091390170913A0180913B019091D8
S11303C03C012FBF08954FB7F8948091410190915B
S11303D04201A0914301B0914401209184003091E5
S11303E08500B09B05C02F3F19F00196A11DB11DDA
S11303F04FBFBA2FA92F982F8827820F911DA11DB7
S1130400B11DBC01CD0143E0660F771F881F991F02
S11304104A95D1F70895EFE6F0E080818E7F8083DE
S113042010928000109281000895E0E8F0E080814D
S113043081608083E1E8F0E080818860808380814E
S113044082608083808181608083EFE6F0E0808138
S113045081608083089578940E941502109241016E
S113046010924201109243011092440110923901FA
S113047010923A0110923B0110923C0110923D01FE
S113048010923E0110923F011092400108951F9274
S11304900F920FB60F9211240F931F932F933F9334
S11304A04F935F936F937F938F939F93AF93BF9378
S11304B08091390190913A01A0913B01B0913C01A6
S11304C000913D0110913E0120913F013091400186
S11304D0B901A8014A5F5F4F6F4F7F4F4D375105F8
S11304E06105710520F40296A11DB11D09C0B90171
S11304F0A80147575109610971090396A11DB11D4E
S113050040933D0150933E0160933F01709340013D
S11305108093390190933A01A0933B01B0933C013D
S11305208091410190914201A0914301B091440115
S11305300196A11DB11D8093410190934201A093A6
S11305404301B0934401BF91AF919F918F917F91EB
S11305506F915F914F913F912F911F910F910F9048
S11305600FBE0F901F90189598E087FF02C05C9A09
S113057001C05C985F9A5F98880F9150B1F7089515
S1130580CF93DF93549A5C98579A5F9810921A010C
S1130590E5E2F1E0C0E2D1E0ABE1B1E01192199201
S11305A01D9281E0EA32F807C9F7DF91CF910895EF
S11305B0CF93DF938530C8F490E0EC01CB5DDE4F40
S11305C03881DC01A05EBE4FFC01E55EFE4F631383
S11305D006C08C91481303C08081281731F06883CA
S11305E04C93208381E080931A01DF91CF91089589
S11305F0CF93C0E020E040E060E08C2F0E94D8025E
S1130600CF5FC530B9F7CF910895CF92DF92EF92C3
S1130610FF920F931F93CF93DF9380911A01882346
S1130620B1F15C9880E25F9A5F988150E1F7CBE189
S1130630D1E080E2E82E81E0F82E05E211E090E2BC
S1130640C92E91E0D92E5C9A83E05F9A5F9881501D
S1130650E1F75C9A85E05F9A5F988150E1F78991B0
S11306600E94B402F70181917F010E94B402F80153
S113067081918F010E94B402CC16DD0621F75C9AA9
S113068080E25F9A5F988150E1F710921A01DF913E
S1130690CF911F910F91FF90EF90DF90CF9008952D
S11306A0229A2A98399841983A9842983B984398C4
S11306B00895EF92FF920F931F93CF93DF938C01D2
S11306C0FC0111821082138212821582148281E04D
S11306D00E9486010E94970182E00E9486010E9486
S11306E0970183E00E9486010E949701D0E02A9A34
S11306F087EC90E00197F1F700C000009D2F917006
S1130700E92ED0FD02C0C2E001C0C0E0EE20B9F085
S1130710C330F4F116C081E08C0F0E9486010E9460
S113072097010E949701EC2FEE0FFF0BE00FF11FD2
S113073020813181820F931F91838083C150C7FF31
S1130740EACF2A98EAE1EA95F1F700C0DF5FD431F5
S113075071F6F8018081918124E130E0B9010E94B1
S11307601D157183608382819381B9010E941D15D7
S11307707383628384819581B9010E941D157583F9
S11307806483DF91CF911F910F91FF90EF900895B3
S1130790FF24F394FC0E8F2D0E9486010E94970182
S11307A00E949701EC2FEE0FFF0BE00FF11F208149
S11307B03181820F931F91838083CF2DA7CF84B57E
S11307C08F7384BD84B58F7C84BD5E985D980895D5
S11307D0E0EBF0E080818F73808380818F7C808365
S11307E02B985B9808955E985D982B985B98569A21
S11307F0559A239A539A0E94DF030E94E80384B512
S1130800836084BD85B5856085BDE0EBF0E08081C3
S113081083608083E1EBF0E080818760808381E006
S11308208093080110922B0110922A0180E090E03D
S1130830A0E8BFE38093040190930501A09306010F
S1130840B09307018093000190930101A0930201EA
S1130850B0930301089585360CF084E68C390CF4CA
S11308608CE90895181624F481E0161684F010C05B
S1130870882351F0062E000C770B60957095872F16
S1130880881F8827881F089581E0611101C080E0D6
S11308900895CF93682F880F770B880B990B0E94CC
S11308A024142091040130910501409106015091D6
S11308B007010E94B0140E94EC13862F0E942B049F
S11308C0C82F682F80912B010E943204882341F0A5
S11308D00E94DF038FE097E20197F1F700C0000068
S11308E01C1634F48C2F880F87BD84B580680CC027
S11308F0CC2361F02C2F332721950CF43095C901BA
S1130900880F88BD84B5806284BD06C080910801CB
S1130910882311F05E9A5D9AC0932B01CF910895BC
S1130920CF93992781950CF49095BC01990F880B6E
S1130930990B0E94241420910001309101014091EF
S11309400201509103010E94B0140E94EC13862FFF
S11309500E942B04C82F682F80912A010E94320420
S1130960882341F00E94E8038FE097E20197F1F7B2
S113097000C000001C1644F48C2F880F8093B30031
S11309808091B00080680EC0CC2379F02C2F3327DF
S113099021950CF43095C901880F8093B40080919F
S11309A0B00080628093B00006C080910801882363
S11309B011F02B9A5B9AC0932A01CF9108958093EA
S11309C0080180912B01811102C00E944904809189
S11309D02A01811102C00C9490040895E1ECF0E026
S11309E08081886080838081806180830895CF9234
S11309F0DF92EF92FF92A8EFBFEF9B01AC010E9440
S1130A0084157E5E85489F4FE4E0220F331F441F08
S1130A10551FEA95D1F70E9445153093C5002093E0
S1130A20C400FF90EF90DF90CF900895CF93DF93B1
S1130A30CDB7DEB79E012B5F3F4FF9014191519134
S1130A409F0160E870E085E491E00E945616E5E4B9
S1130A50F1E08191882339F09091C00095FFFCCF9B
S1130A608093C600F6CFDF91CF9108958091CB019A
S1130A7008958091D20108951092CB011092CC0177
S1130A801092D20108958091C50108951092C50174
S1130A9008951092C6011092C70108959093C90158
S1130AA08093C8016093D4011092CD011092CE01BD
S1130AB01092CF011092D0011092C5010E943C0502
S1130AC00E944905219A299852981092D101E8E68A
S1130AD0F0E0808184608083EDE6F0E080818460D2
S1130AE080837894089581E08093D3011092CA01A1
S1130AF00895FA012091D3012130C9F42091D10144
S1130B00222371F1643823E0720781059105D0F442
S1130B10623C71408105910520F48081869580684E
S1130B2002C08081869580831092D30119C021115F
S1130B3017C02091D101211113C06835724081057D
S1130B40910520F00E94490581E008958091CA0131
S1130B508F5F8093CA01883029F081E08093D301AC
S1130B6080E0089582E0089598E080FF05C0E7E5FD
S1130B70F2E03197F1F704C0EFEAF4E03197F1F7CE
S1130B8000C0000010928500109284002091800023
S1130B9020642093800020918100216020938100B3
S1130BA0E7E5F2E03197F1F700C000002091800002
S1130BB02F7B20938000209181002E7F2093810041
S1130BC029988695915089F60895282FFC0180E094
S1130BD09E2F921B961750F49191892798E037E045
S1130BE0880F08F483279A95D9F7F2CF0895EF92E6
S1130BF0FF920F931F93CF93DF93662309F457C09B
S1130C00C62F8C010E940B0288E690E09093890025
S1130C10809388001092800010928100809181005E
S1130C2088608093810010928500109284008091E6
S1130C308000806480938000809181008160809333
S1130C4081008FE396E00197F1F700C000008091E6
S1130C5080008F7B80938000809181008E7F8093C1
S1130C60810029988C2F0E94B4056C2FC8010E9422
S1130C70E5050E94B4057801D0E0C701801B910B03
S1130C808C179D0730F4F70181917F010E94B40510
S1130C90F4CF8FE99FE00197F1F700C00000DF91E6
S1130CA0CF911F910F91FF90EF900C941502DF915B
S1130CB0CF911F910F91FF90EF9008959091C501EE
S1130CC0911102C08093C50108952091D101211191
S1130CD019C0DC01CB01853F21E09207A105B105D4
S1130CE010F481E006C08C349440A105B10528F0CD
S1130CF082E00E945E060C94490581E08093C6015F
S1130D000C947305089542ED51E00E9479058130F9
S1130D1011F483E007C0823099F49091D2019111CB
S1130D2005C084E00E945E060C9449052091D2011E
S1130D309091D4019217A8F38093C6010C94730583
S1130D4008954CEC51E00E947905813029F483E048
S1130D500E945E060C944905823039F483E0809346
S1130D60C6010E9473051092C7010895CF92DF92C5
S1130D70EF92FF922091C7013091D2012317E8F539
S1130D806B017C014091C8015091C901420F511D72
S1130D900E947905813011F483E020C0823069F526
S1130DA08091C7018F5F8093C7010E947305809172
S1130DB0D2019091C7019817C8F06091D201809137
S1130DC0C8019091C9010E94E5059091CC01891355
S1130DD004C081E08093CB0103C085E00E945E06DD
S1130DE0FF90EF90DF90CF900C94490589E8C816E6
S1130DF083E1D806E104F10478F6FF90EF90DF90E8
S1130E00CF900895CF92DF92EF92FF922091CB0181
S1130E10211137C06B017C0189E8C81683E1D8062B
S1130E20E104F10420F00E9449050E943C058091F0
S1130E30C601811108C0C701B601FF90EF90DF9091
S1130E40CF900C946506813041F4C701B601FF9040
S1130E50EF90DF90CF900C948306823041F4C70169
S1130E60B601FF90EF90DF90CF900C94A1068330F1
S1130E7041F4C701B601FF90EF90DF90CF900C943E
S1130E80B606FF90EF90DF90CF9008951F920F92D7
S1130E900FB60F921124CF92DF92EF92FF922F930D
S1130EA03F934F935F936F937F938F939F93AF93EE
S1130EB0BF93EF93FF930E94E301C090CD01D090C4
S1130EC0CE01E090CF01F090D0016093CD017093FA
S1130ED0CE018093CF019093D00129B122FB332717
S1130EE030F921E023272093D1016C197D098E0963
S1130EF09F090E940207FF91EF91BF91AF919F91CB
S1130F008F917F916F915F914F913F912F91FF90BE
S1130F10EF90DF90CF900F900FBE0F901F90189519
S1130F202F923F924F925F926F927F928F929F92F5
S1130F30AF92BF92CF92DF92EF92FF920F931F93E3
S1130F40CF93DF93CDB7DEB766970FB6F894DEBFC5
S1130F500FBECDBF26E332E03F832E83912C1E8A41
S1130F601D8A19821A82212C312C812C1D82412C3C
S1130F70512C3201188619861A861B861C861D86FA
S1130F801E861F86EE81FF8121913191FF83EE83BE
S1130F903C832B83A92CBE88CD88D980EA80F22C8F
S1130FA0032D182D40E050E060E070E080E090E018
S1130FB00E948915A884B984CA84DB84EC84FD84E6
S1130FC00E851F850E944116288B398B4A8B5B8BBB
S1130FD06C8BB72FF82FE92F288739874A875B87CF
S1130FE06C877D878E879F878B819C81480E591ED5
S1130FF0611C711C4A9710F091E09D83292D3E8954
S11310004D8959816A81722D832D982DA4E60E9401
S11310104A16922E3E8B4D8B59836A83272E382E87
S1131020892E2C3231404105510561057105810538
S1131030910509F0A7CF411451046104710429F109
S11310402D81222311F19301820152016901E12CC6
S1131050F12C00E010E0288939894A895B896C8980
S11310607B2F8F2F9E2F0E94E415A32FF42FE52FA3
S1131070422F5A2F6F2F7E2F40933001509331010E
S1131080609332017093330108C040913001509154
S113109031016091320170913301CB01BA01645680
S11310A071098109910900912C0110912D01209160
S11310B02E0130912F014B015C01801A910AA20A82
S11310C0B30A60932C0170932D0180932E019093A9
S11310D02F010E9424142FE832EC45EF5DE30E94B7
S11310E0B0142B013C01C501B4010E9424142DEC61
S11310F03CEC4CE45DE30E94B0149B01AC01C301E1
S1131100B2010E9480130E94EC138B01072E000C85
S1131110220B330BFB0177FF04C0EE27FF27E61BEE
S1131120F70B44E150E02A014E1A5F0A052C000C2B
S113113066087708D901C801840D951DA61DB71D41
S11311408C3E4FEF9407A407B40724F48CEE9FEF72
S1131150AFEFBFEF401A510A620A730AECEE4E1663
S1131160EFEF5E066E067E0634F42CEE422E552416
S11311705A94652C752C85319105A105B10524F08F
S113118084E190E0A0E0B0E00E944904D301C201F0
S113119085319105A105B10524F084E190E0A0E03A
S11311A0B0E066960FB6F894DEBF0FBECDBFDF91F8
S11311B0CF911F910F91FF90EF90DF90CF90BF9050
S11311C0AF909F908F907F906F905F904F903F90E3
S11311D02F900C949004FF920F931F93CF93DF935F
S11311E0182F062FF42ED5E0C0E02F2D402F612FAD
S11311F08C2F0E94D802CF5FC530B9F70E94050337
S11312008FE59AEE0197F1F700C000000E94F80202
S11312100E9405039FEF2DEE82E091502040804014
S1131220E1F700C00000D150F9F6DF91CF911F9192
S11312300F91FF900895CF92DF92FF920F931F9327
S1131240CF93DF9300D01F92CDB7DEB76C01F601C8
S113125081916F018F3309F49CC08A3021F440E0FE
S113126060E082E305C08B3031F440E062E380E06B
S11312700E94EB08ECCF8C3019F442E360E0F7CF26
S1131280843141F51AE088ED0E94490488E20E9405
S113129090042FEF80E792E0215080409040E1F7E6
S11312A000C0000088E20E94490488ED0E94900476
S11312B0EFEFF0E722E0E150F0402040E1F700C01A
S11312C00000115001F780E00E94490480E00E9470
S11312D09004BDCF853111F51AE088E20E944904DB
S11312E088E20E9490048FEF90E7E2E08150904002
S11312F0E040E1F700C0000088ED0E94490488ED59
S11313000E949004FFEF20E782E0F15020408040EB
S1131310E1F700C00000115001F7D5CF8A3209F07F
S113132096CF8CEE0E94490484E10E94900410E060
S11313301D5F0E94F802F12E00E09E012F5F3F4FD7
S1131340AE014E5F5F4FBE016D5F7F4F8F2D0E94D8
S1131350441329814A816B81802F0E94D8020F5F38
S11313609EE1F90E053049F70E940503EFE1FEE422
S11313703197F1F700C000001937D1F680E00E94E0
S1131380490480E00E9490040E94F8020E94050330
S11313905ECF0E94F8020E94050380E00E94490487
S11313A080E00E9490040F900F900F90DF91CF91F6
S11313B01F910F91FF90DF90CF900895FF920F93AC
S11313C01F93CF93DF9300D000D000D0CDB7DEB70A
S11313D0F82E00E010E0101710F460E001C06AE09D
S11313E020E0462F812F0E94D8021F5F153099F705
S11313F00E94050310E01F1541F1CE0101960E94E1
S11314005903AE014F5F5F4FE4E0F2E06BE072E03E
S1131410DA018D919D91AD01208131812817390721
S113142008F49C0121933193DB012D913C918217A7
S1131430930708F49C01DB012D933D93BD01B2E0B9
S1131440EA30FB0729F71F5FD6CF0F5F053011F68F
S113145026960FB6F894DEBF0FBECDBFDF91CF91B5
S11314601F910F91FF900895DF92EF92FF920F93D7
S11314701F93CF93DF9386E392E00E945903EBE03E
S1131480F2E004E012E0C6E3D2E081E1E82E82E07B
S1131490F82E94E6D92E41915191D8016D917D9108
S11314A08D01888199818417950708F4CA0168170A
S11314B0790708F4CB019C01241B350BD29EC00193
S11314C0D39E900D11246F5F7F4F641B750B0E9498
S11314D01D1569937993EE16FF06E9F6DF91CF9116
S11314E01F910F91FF90EF90DF9008953F924F92DC
S11314F05F926F927F928F929F92AF92BF92CF92A0
S1131500DF92EF92FF920F931F93CF93DF93CDB7A8
S1131510DEB729970FB6F894DEBF0FBECDBF0E9489
S1131520F8020E94050380E00E94490480E00E94C2
S1131530900481E00E94DF040E94EE0460E07BE4FA
S113154080E090E00E94F70468E0CE0101960E94DA
S11315504E052FEF39E648E1215030404040E1F795
S113156000C0000010920502109204028FEF9FEF5A
S113157090930C0280930B021092070210920602C1
S113158090930E0280930D021092090210920802A9
S11315909093100280930F0284E10E9449048CEE20
S11315A00E94900485E00E94DE0980E00E944904C4
S11315B080E00E9490045FE788E391E0515080400E
S11315C09040E1F700C000008CEE0E94490484E1E1
S11315D00E9490048AE00E94DE0980E00E9449048F
S11315E080E00E9490042FE738E341E0215030402E
S11315F04040E1F700C0000084E10E9449048CEE01
S11316000E94900485E00E94DE0980E00E94490463
S113161080E00E9490040E94F8020E94050346E0C4
S113162050E060E170E08BE092E00E942B1946E00C
S113163050E066E170E084E092E00E942B1982E0C1
S11316400E94BB125FEF89E698E1515080409040C0
S1131650E1F700C000000E94340AA0903802B09064
S1131660390222E4A216B104B0F0109203021092DF
S11316700A021092D50146E050E060E170E08BE090
S113168092E00E94131946E050E066E170E084E0C5
S113169092E00E9413190E94D7011092FA0130EDD2
S11316A0432E37E0532E612C712C4FE3942E01E02E
S11316B053E0852E64E0362E1091FA01111190C189
S11316C00E94D70132E4A316B10408F447C1809103
S11316D0030281111AC00E94340A0E94900780916B
S11316E0380290913902499708F01FC10E94D7012E
S11316F06093F6017093F7018093F8019093F901D8
S1131700009303021092350210C18130A9F50E94A2
S1131710340A0E94900780913802909139028234F1
S1131720910508F402C10E94D701C090F601D0903F
S1131730F701E090F801F090F901DC01CB018C197C
S11317409D09AE09BF098093310290933202A093A0
S11317503302B09334028093FF0190930002A0936C
S11317600102B09302028093FB019093FC01A093C9
S1131770FD01B093FE0187C0823009F076C00E945B
S1131780340A0E9490078091380290913902499757
S113179008F0CBC00E94D701C090F601D090F701A9
S11317A0E090F801F090F9019B01AC012C193D097E
S11317B04E095F0969017A010E94F80224E144E1BB
S11317C064E182E00E94D8020E9405038FE19EE456
S11317D00197F1F700C000000E94F8020E9405037F
S11317E08091FF0190910002A0910102B091020248
S11317F0C816D906EA06FB0610F4D701C601809381
S1131800FF0190930002A0930102B0930202809121
S1131810FB019091FC01A091FD01B091FE018C159A
S11318209D05AE05BF0510F4D701C6018093FB01E9
S11318309093FC01A093FD01B093FE0180913502C9
S113184094E0899FF0011124EF5EFD4FC082D182A4
S1131850E282F3828F5F80933502883018F03092F1
S1131860030263C08092030260C08330D1F40E94FB
S1131870340A0E9490078091380290913902823490
S1131880910508F452C00E94D7016093F601709349
S1131890F7018093F8019093F90182E080930302A9
S11318A044C0843009F041C00E94340A0E94900769
S11318B04091FF0150910002609101027091020277
S11318C08091FB019091FC01A091FD01B091FE017A
S11318D0841B950BA60BB70BB695A7959795879583
S11318E0840F951FA61FB71FE1E3F2E0110F729159
S11318F062915291429184179507A607B70708F49D
S1131900116022E0E131F20789F7169516951093DC
S1131910D501E0910A0281E08E0F80930A02F0E083
S1131920EA52FE4F1083109203028091D5018F3347
S113193021F080910A028032E8F180E00E9449049B
S113194080E00E94900460910A0286ED91E00E947A
S1131950F70586ED91E00E941B0924C00E94D7017F
S1131960A30192010E944515623371058105910519
S113197008F410E420E040E0612F82E00E94D802E5
S11319800E9405030E943605882379F00E943905D8
S1131990FE01E80FF11D9082CE0101960E941B0901
S11319A00E943C050093FA0105C00E944305811181
S11319B00E9446050E94D301882379F03FE748E35B
S11319C051E0315040405040E1F700C000000E9417
S11319D0D3018111FCCF0093FA010E94F6126CCE60
S11319E029960FB6F894DEBF0FBECDBFDF91CF911D
S11319F01F910F91FF90EF90DF90CF90BF90AF9029
S1131A009F908F907F906F905F904F903F9008953C
S1131A10FF920F931F93CF93DF9300D000D000D099
S1131A20CDB7DEB7F82E00E010E0101710F460E038
S1131A3001C06AE020E0462F812F0E94D8021F5F78
S1131A40153099F70E94050310E01F1541F1CE01EE
S1131A5001960E945903AE014F5F5F4FE4E0F2E04C
S1131A606BE072E0DA018D919D91AD0120813181AD
S1131A702817390708F49C0121933193DB012D9138
S1131A803C918217930708F49C01DB012D933D934D
S1131A90BD01B2E0EA30FB0729F71F5FD6CF0F5F25
S1131AA0053011F626960FB6F894DEBF0FBECDBFF3
S1131AB0DF91CF911F910F91FF900895DF92EF92E4
S1131AC0FF920F931F93CF93DF930E94F8020E941B
S1131AD0050380E00E94490480E00E94900481E0B4
S1131AE00E94DF042FEF89E698E121508040904066
S1131AF0E1F700C0000010920502109204028FEF7B
S1131B009FEF90930C0280930B02109207021092A5
S1131B10060290930E0280930D0210920902109215
S1131B2008029093100280930F0284E10E944904FA
S1131B308CEE0E94900485E00E94080D80E00E94D3
S1131B40490480E00E949004AFE7B8E321E0A1508B
S1131B50B0402040E1F700C000008CEE0E94490430
S1131B6084E10E9490048AE00E94080D80E00E94B3
S1131B70490480E00E9490048FE798E3A1E081503B
S1131B809040A040E1F700C0000084E10E944904B5
S1131B908CEE0E94900485E00E94080D46E050E01F
S1131BA060E170E08BE092E00E942B1946E050E087
S1131BB066E170E084E092E00E942B1980E00E94CC
S1131BC0490480E00E9490040E94F8020E940503E8
S1131BD046E050E060E170E08BE092E00E9413196F
S1131BE046E050E066E170E084E092E00E94131960
S1131BF094E6D92EC1E1D2E084E60E94490484E649
S1131C000E94900486E392E00E945903EBE0F2E024
S1131C1084E0E82E82E0F82E06E312E0419151912F
S1131C20D7016D917D917D01D8018D919C9184178F
S1131C30950708F4CA016817790708F4CB019C01D9
S1131C40241B350BD29EC001D39E900D11246F5FCF
S1131C507F4F641B750B0E941D15D8016D937D93F6
S1131C608D01CE17DF07D1F68091360290913702AD
S1131C708C34910570F480913802909139028C343F
S1131C80910538F480913A0290913B028C3491058D
S1131C9050F120E040E060E482E00E94D8020E941B
S1131CA0050382EE0E94490482EE0E949004BFEF75
S1131CB023EC89E0B15020408040E1F700C00000EF
S1131CC08EE10E94490482EE0E9490049FEFA2E5F7
S1131CD0B7E09150A040B040E1F700C000000E947E
S1131CE0F8020E9405030E94D301882379F02FE7AC
S1131CF088E391E0215080409040E1F700C000006B
S1131D000E94D3018111FCCF11E001C010E00E94B8
S1131D10F612112309F470CFDF91CF911F910F9127
S1131D20FF90EF90DF900895DF92EF92FF920F9370
S1131D301F93CF93DF930E94F8020E94050380E073
S1131D400E94490480E00E94900481E00E94DF0424
S1131D5046E050E060E170E08BE092E00E941319ED
S1131D6046E050E066E170E084E092E00E941319DE
S1131D7001E112E094E6D92EC9E0D1E086E392E0D5
S1131D800E945903EBE0F2E084E0E82E82E0F82EB2
S1131D9026E332E041915191D7016D917D917D010E
S1131DA0D9018D919C918417950708F4CA0168178D
S1131DB0790708F4CB01DC01A41BB50BDA9EC00142
S1131DC0DB9E900D11246F5F7F4F641B750B0E9487
S1131DD01D15D9016D937D939D010E171F07D1F633
S1131DE00E94F80220E04091360260E080E00E9408
S1131DF0D80220E04091380260E082E00E94D802DC
S1131E0020E040913A0260E084E00E94D8020E94FF
S1131E1005030E94D301882381F0BFE728E381E012
S1131E20B15020408040E1F700C000000E94D3017F
S1131E308111FCCFFF24F39401C0F12C80913B026B
S1131E408F9380913A028F93809139028F9380917E
S1131E5038028F93809137028F93809136028F934B
S1131E60DF93CF930E9416050E94F6128DB79EB79A
S1131E7008960FB6F8949EBF0FBE8DBFFF2009F4DD
S1131E807DCFDF91CF911F910F91FF90EF90DF9065
S1131E900895FF920F931F93CF93DF9300D000D048
S1131EA000D0CDB7DEB7F82E00E010E0101710F424
S1131EB060E001C06AE020E0462F812F0E94D80232
S1131EC01F5F153099F70E94050310E01F1541F1BB
S1131ED0CE0101960E945903AE014F5F5F4FE4E0CB
S1131EE0F2E06BE072E0DA018D919D91AD01208109
S1131EF031812817390708F49C0121933193DB01C0
S1131F002D913C918217930708F49C01DB012D93DA
S1131F103D93BD01B2E0EA30FB0729F71F5FD6CF3E
S1131F200F5F053011F626960FB6F894DEBF0FBE8C
S1131F30CDBFDF91CF911F910F91FF9008952F9204
S1131F403F924F925F926F927F928F929F92AF9245
S1131F50BF92CF92DF92EF92FF920F931F93CF9392
S1131F60DF93CDB7DEB76E970FB6F894DEBF0FBE22
S1131F70CDBF0E94F8020E94050380E00E9449043C
S1131F8080E00E94900481E00E94DF040E94EE043D
S1131F9060E875E280E090E00E94F7042FEF39E6F4
S1131FA048E1215030404040E1F700C00000109269
S1131FB00502109204028FEF9FEF90930C0280931E
S1131FC00B02109207021092060290930E02809365
S1131FD00D0210920902109208029093100280934D
S1131FE00F0284E10E9449048CEE0E94900485E073
S1131FF00E94490F80E00E94490480E00E949004FE
S11320005FE788E391E0515080409040E1F700C0E1
S113201000008CEE0E94490484E10E9490048AE04E
S11320200E94490F80E00E94490480E00E949004CD
S1132030AFE7B8E3E1E0A150B040E040E1F700C011
S1132040000084E10E9449048CEE0E94900485E023
S11320500E94490F46E050E060E170E08BE092E0BE
S11320600E942B1946E050E066E170E084E092E0C3
S11320700E942B1946E050E060E170E08BE092E0B2
S11320800E94131946E050E066E170E084E092E0BB
S11320900E9413191A861B861C861D8624E630E0CE
S11320A040E050E029833A834B835C8386E392E0EB
S11320B00E945903EBE0F2E004E012E046E352E050
S11320C05F874E8758874F8341915191D8016D9115
S11320D07D918D01AF81B8852D913C9124173507F1
S11320E008F49A016217730708F49B01241B350B4B
S11320F0B4E6B29FC001B39F900D11246F5F7F4F70
S1132100641B750B0E941D15AF81B8856D937D937B
S1132110B887AF83B2E0E131FB07B1F6912C1E8E94
S11321201D8E1D821E82212C312C812C1986412C5E
S1132130512C3201188A198A1A8A1B8A1C8A1D8A10
S11321401E8A1F8AEE85FF8521913191FF87EE87D4
S113215038872F83A92CBE8CCD8CDD80EE80F22CA9
S1132160032D182D40E050E060E070E080E090E046
S11321700E948915A888B988CA88DB88EC88FD88FC
S11321800E891F890E944116288F398F4A8F5B8FD1
S11321906C8FB72FF82FE92F288B398B4A8B5B8BE9
S11321A06C8B7D8B8E8B9F8B4F815885440E551E77
S11321B0611C711C4E32510510F051E05987292DD4
S11321C03E8D4D8D5D816E81722D832D982DA4E6FB
S11321D00E944A16922E3E8F4D8F5D836E83272E6A
S11321E0382E892E2C323140410551056105710587
S11321F08105910509F0A6CF4114510461047104CD
S1132200C9F029852223B1F09301820152016901A9
S1132210E12CF12C00E010E0288D398D4A8D5B8D86
S11322206C8D7B2F8F2F9E2F0E94E41529833A8378
S11322304B835C8349805A806B807C8034E6431AEC
S1132240510861087108C301B2012A853B854C8598
S11322505D85621B730B840B950B0E9424142DEC7B
S11322603CEC4CE85FE30E94B0144B015C01C301F9
S1132270B2010E9424142DEC3CEC4CE45FE30E9478
S1132280B0149B01AC01C501B4010E9480130E94EB
S1132290EC136B01072E000CEE08FF089B0177FF7F
S11322A004C022273327261B370B44E6842E912CA7
S11322B0821A930A092C000CAA08BB08D701C6018C
S11322C0880D991DAA1DBB1D8C393FEF9307A307E9
S11322D0B30724F48CE99FEFAFEFBFEF8C189D0890
S11322E0AE08BF084CE984164FEF9406A406B40662
S11322F034F42CE9822E99249A94A92CB92C85368D
S11323009105A105B10524F084E690E0A0E0B0E0D9
S11323100E944904D501C40185369105A105B10582
S113232024F084E690E0A0E0B0E00E9490040E94D3
S1132330D301882381F05FE788E391E05150804026
S11323409040E1F700C000000E94D3018111FCCF4E
S1132350A1E0AE8301C01E82142D15360CF050C0CE
S11323604D821C391CF4ECE9ED8302C01E3C7CF464
S11323702D81332721950CF43095A901425320E097
S113238060E080E00E94D80220E042E30FC047FEF4
S11323901AC020E040E060E080E00E94D802842D72
S11323A0992781950CF49095AC0120E060E081E0E0
S11323B00E94D80220E042E360E082E00E94D8025A
S11323C020E040E016C01333ECF420E040E060E08D
S11323D080E00E94D80220E040E060E081E00E94BA
S11323E0D80220E042E360E082E00E94D80220E0CC
S11323F0442D60E083E00E94D80220E040E01DC04C
S113240094E69D8320E040E060E080E00E94D802F2
S113241020E040E060E081E00E94D80220E042E356
S113242060E082E00E94D80220E042E360E083E0C2
S11324300E94D8024D81425320E060E084E00E9473
S1132440D8020E9405030E94F612AE81A11105C0B4
S11324504A865B866C867D8629CE6E960FB6F89486
S1132460DEBF0FBECDBFDF91CF911F910F91FF90C3
S1132470EF90DF90CF90BF90AF909F908F907F9020
S11324806F905F904F903F902F900895EF92FF923E
S11324900F931F93CF93DF9300D01F92CDB7DEB776
S11324A0E12C00E00D5F0E94F802F02E10E09E0186
S11324B02F5F3F4FAE014E5F5F4FBE016D5F7F4F99
S11324C08F2D0E94441329814A816B81812F0E94A0
S11324D0D8021F5F2EE1F20E153049F70E94050362
S11324E08FE19EE40197F1F700C000000E94D30140
S11324F08823C1F29FE728E381E091502040804087
S1132500E1F700C000000E94D3018111FCCFE1106B
S113251009C08CEE0E94490484E10E949004EE24D8
S1132520E394C0CF0F900F900F90DF91CF911F9144
S11325300F91FF90EF90089570E0681B710977FF89
S113254003C0719561957109AB01440F551F460F86
S1132550571F052E000C660B770B8FEF90E0A0E061
S1132560B0E0841B950BA60BB70BB7FF03C080E04C
S113257090E0DC010895CF92DF92EF92FF92CF9327
S1132580C82F84EFC82EDD24D394E12CF12C0E94B3
S1132590D701A70196010E94451562337105810593
S11325A0910510F040E001C040E420E060E08C2F91
S11325B00E94D8020E9405030E94D301882339F3A4
S11325C02FE788E391E0215080409040E1F700C07C
S11325D000000E94D3018111FCCF0E94F802CF9128
S11325E0FF90EF90DF90CF900C940503CF93DF938F
S11325F00E94A5010E94CB0186319D4008F041C094
S113260080E00E94490480E00E9490040E94F80245
S11326100E9405038FEF94E32CE08150904020400A
S1132620E1F700C00000D4E1C0E020E040E060E455
S11326308C2F0E94D802CF5FC530B9F70E940503E2
S11326408FE39CE90197F1F700C000000E94F802B3
S11326500E9405039FEF20E782E0915020408040D4
S1132660E1F700C00000D150F9F680917A008F772D
S113267080937A0083B7846083BF83B7816083BF0C
S11326808895DF91CF910895CF92DF92EF92FF92D8
S11326900F931F93CF93DF93D82F6B017A01890196
S11326A060E00E949C12C82F6FEF8D2F0E949C1235
S11326B09C2FC81708F4982FF601908365E58D2F99
S11326C00E949C12F70180836AEA8D2F0E949C125B
S11326D0F8018083DF91CF911F910F91FF90EF90CC
S11326E0DF90CF90089580E090E00E94231961E08C
S11326F0680F6093340180E090E00C9435195058D1
S1132700BB27AA270E9497130C9476140E9468147E
S113271038F00E946F1420F039F49F3F19F426F426
S11327200C9465140EF4E095E7FB0C945F14E92F08
S11327300E94871458F3BA17620773078407950732
S113274020F079F4A6F50C94A9140EF4E0950B2E60
S1132750BA2FA02D0B01B90190010C01CA01A001EF
S11327601124FF27591B99F0593F50F4503E68F14A
S11327701A16F040A22F232F342F4427585FF3CF8B
S1132780469537952795A795F0405395C9F77EF45C
S11327901F16BA0B620B730B840BBAF09150A1F0A5
S11327A0FF0FBB1F661F771F881FC2F70EC0BA0F2B
S11327B0621F731F841F48F4879577956795B795B3
S11327C0F7959E3F08F0B0CF9395880F08F09927AE
S11327D0EE0F9795879508950E94F3136894B111AD
S11327E00C94AA1408950E948F1488F09F5798F0AF
S11327F0B92F9927B751B0F0E1F0660F771F881F02
S1132800991F1AF0BA95C9F714C0B13091F00E941B
S1132810A914B1E008950C94A914672F782F882780
S1132820B85F39F0B93FCCF3869577956795B39542
S1132830D9F73EF490958095709561957F4F8F4FB1
S11328409F4F0895E89409C097FB3EF490958095B6
S1132850709561957F4F8F4F9F4F9923A9F0F92F62
S113286096E9BB279395F695879577956795B795E0
S1132870F111F8CFFAF4BB0F11F460FF1BC06F5FC6
S11328807F4F8F4F9F4F16C0882311F096E911C0D8
S1132890772321F09EE8872F762F05C0662371F0F9
S11328A096E8862F70E060E02AF09A95660F771F0D
S11328B0881FDAF7880F9695879597F9089597F901
S11328C09F6780E870E060E008959FEF80EC0895D2
S11328D000240A94161617061806090608950024FB
S11328E00A9412161306140605060895092E039475
S11328F0000C11F4882352F0BB0F40F4BF2B11F4E9
S113290060FF04C06F5F7F4F8F4F9F4F089557FD47
S11329109058440F551F59F05F3F71F04795880F49
S113292097FB991F61F09F3F79F0879508951216E0
S113293013061406551FF2CF4695F1DF08C016168C
S113294017061806991FF1CF86957105610508943D
S11329500895E894BB2766277727CB0197F9089554
S11329600E94C3140C9476140E94681438F00E94D8
S11329706F1420F0952311F00C945F140C946514DB
S113298011240C94AA140E94871470F3959FC1F328
S1132990950F50E0551F629FF001729FBB27F00D09
S11329A0B11D639FAA27F00DB11DAA1F649F66275E
S11329B0B00DA11D661F829F2227B00DA11D621FAD
S11329C0739FB00DA11D621F839FA00D611D221F67
S11329D0749F3327A00D611D231F849F600D211D4B
S11329E0822F762F6A2F11249F5750409AF0F1F0CE
S11329F088234AF0EE0FFF1FBB1F661F771F881F37
S1132A0091505040A9F79E3F510580F00C945F14FB
S1132A100C94AA145F3FE4F3983ED4F3869577951B
S1132A206795B795F795E7959F5FC1F7FE2B880FDC
S1132A30911D9695879597F90895AA1BBB1B51E1A3
S1132A4007C0AA1FBB1FA617B70710F0A61BB70B1A
S1132A50881F991F5A95A9F780959095BC01CD01BF
S1132A60089597FB072E16F4009407D077FD09D03C
S1132A700E941D1507FC05D03EF4909581959F4F4B
S1132A800895709561957F4F0895A1E21A2EAA1BAF
S1132A90BB1BFD010DC0AA1FBB1FEE1FFF1FA2170A
S1132AA0B307E407F50720F0A21BB30BE40BF50B07
S1132AB0661F771F881F991F1A9469F76095709590
S1132AC0809590959B01AC01BD01CF010895A29F13
S1132AD0B001B39FC001A39F700D811D1124911DEE
S1132AE0B29F700D811D1124911D08950E946715D8
S1132AF0A59F900DB49F900DA49F800D911D11244E
S1132B000895B7FF0C9476150E947615821B930BDB
S1132B100895DF93CF931F930F939A9DF02D219FD8
S1132B20F00D8B9DF00D8A9DE02DF10D039FF00DAE
S1132B30029FE00DF11D4E9DE00DF11D5E9DF00D17
S1132B404F9DF00D7F936F93BF92AF925F934F931E
S1132B50D5010E9467158B01AC01D7010E9467154E
S1132B60EB01E80FF91FD6010E94D9152F913F916F
S1132B70D6010E946715C60FD71FE81FF91FAF9132
S1132B80BF910E94D9152F913F910E946715C60FDE
S1132B90D71FE81FF91FD6010E946715E60FF71F1C
S1132BA09801BE01CF0111240F911F91CF91DF91A4
S1132BB008950E946715460F571FC81FD91F08F4B0
S1132BC031960895689401C0E8948F929F92CF93B0
S1132BD0DF930E94F015DF91CF919F908F9008951D
S1132BE088249924F401E401B0E49F93AA279A1558
S1132BF08B049C04ED05FE05CF05D007A10798F4CE
S1132C00AD2FDC2FCF2FFE2FE92D982C892E982F56
S1132C10872F762F652F542F432F322F2227B8501A
S1132C2031F7BF9127C01B2EBF91BB27220F331F43
S1132C30441F551F661F771F881F991F881C991CE6
S1132C40EE1FFF1FCC1FDD1FAA1FBB1F8A149B048E
S1132C50EC05FD05CE05DF05A007B10748F08A188D
S1132C609B08EC09FD09CE09DF09A00BB10B21601B
S1132C701A94E1F62EF49401AF01BE01CD01000CCB
S1132C8008952A0D3B1D4C1D5D1D6E1D7F1D801F6B
S1132C90911F08950024A7FD00942A0F301D401DA4
S1132CA0501D601D701D801D901D0895AEE0B0E0A4
S1132CB0ECE5F6E10C9451198C01FA0186E08C8361
S1132CC01A83098377FF02C060E070E8CB010197A3
S1132CD09E838D83A901BF01CE0101960E948216B5
S1132CE04D815E8157FD0AC02F81388542175307F5
S1132CF00CF49A01F801E20FF31F10822E96E4E01F
S1132D000C946D19ABE0B0E0E8E8F6E10C944319DB
S1132D106C017B018A01FC0117821682838181FF89
S1132D20CCC1CE0101963C01F6019381F70193FDDC
S1132D30859193FF81917F01882309F4BAC185327B
S1132D4039F493FD859193FF81917F01853229F4B4
S1132D50B60190E00E947918E7CF912C212C312CF8
S1132D60FFE1F315D8F08B3279F038F4803279F042
S1132D708332A1F4232D20611DC08D3261F0803394
S1132D8069F4232D216016C0832D8260382EE32D33
S1132D90E4603E2E2AC0F32DF8601DC037FC2DC020
S1132DA020ED280F2A3040F08E32B9F436FC81C170
S1132DB0232D2064322E19C036FE06C08AE0989E68
S1132DC0200D1124922E11C0EAE02E9E200D112414
S1132DD0222EF32DF0623F2E08C08C3621F4832D71
S1132DE08068382E02C0883641F4F70193FD85913E
S1132DF093FF81917F018111B3CF982F9F7D9554CB
S1132E00933028F40C5F1F4F9FE399830DC08336E2
S1132E1031F0833771F0833509F059C021C0F801CE
S1132E20808189830E5F1F4F88248394912C5301E2
S1132E3013C02801F2E04F0E511CF801A080B180AC
S1132E4036FE03C0692D70E002C06FEF7FEFC5014D
S1132E500E946E184C018201F32DFF773F2E16C09D
S1132E60280122E0420E511CF801A080B18036FEF8
S1132E7003C0692D70E002C06FEF7FEFC5010E94AF
S1132E8063184C01F32DF0683F2E820133FC1BC004
S1132E90822D90E088169906B0F4B60180E290E0A5
S1132EA00E9479182A94F4CFF50137FC859137FEF6
S1132EB081915F01B60190E00E94791821102A9453
S1132EC021E0821A91088114910471F7E8C08436D4
S1132ED011F0893641F5F80137FE07C06081718130
S1132EE0828193810C5F1F4F08C060817181072E1E
S1132EF0000C880B990B0E5F1F4FF32DFF763F2EAE
S1132F0097FF09C090958095709561957F4F8F4F7D
S1132F109F4FF0683F2E2AE030E0A3010E94B518CD
S1132F20882E861845C0853731F4232D2F7EB22E86
S1132F302AE030E025C0932D997FB92E8F36C1F059
S1132F4018F4883579F0B5C0803719F0883721F046
S1132F50B0C0E92FE061BE2EB4FE0DC0FB2DF460BD
S1132F60BF2E09C034FE0AC0292F2660B22E06C027
S1132F7028E030E005C020E130E002C020E132E08A
S1132F80F801B7FE07C060817181828193810C5F73
S1132F901F4F06C06081718180E090E00E5F1F4F7B
S1132FA0A3010E94B518882E8618FB2DFF773F2EAB
S1132FB036FE0DC0232D2E7FA22E891458F434FE24
S1132FC00BC032FC09C0832D8E7EA82E05C0B82C00
S1132FD0A32C03C0B82C01C0B92CA4FE0FC0FE0161
S1132FE0E80DF11D8081803321F49A2D997EA92E5C
S1132FF009C0A2FE06C0B394B39404C08A2D867897
S113300009F0B394A3FC11C0A0FE06C0B21488F466
S1133010280C922C9B180EC0B21460F4B60180E206
S113302090E00E947918B394F7CFB21418F42B18D7
S113303002C0982C212CA4FE10C0B60180E390E0BD
S11330400E947918A2FE17C0A1FC03C088E790E093
S113305002C088E590E0B6010CC08A2D867859F04C
S1133060A1FE02C08BE201C080E2A7FC8DE2B601A2
S113307090E00E947918891438F4B60180E390E056
S11330800E9479189A94F7CF8A94F301E80DF11D00
S11330908081B60190E00E9479188110F5CF22203A
S11330A009F442CEB60180E290E00E9479182A9495
S11330B0F6CFF6018681978102C08FEF9FEF2B96A2
S11330C0E2E10C945F19FC0105906150704001101D
S11330D0D8F7809590958E0F9F1F0895FC0161503D
S11330E0704001900110D8F7809590958E0F9F1F26
S11330F008950F931F93CF93DF93FB01238121FD49
S113310003C08FEF9FEF2CC022FF16C0468157816A
S1133110248135814217530744F4A081B1819D0174
S11331202F5F3F4F318320838C93268137812F5F1C
S11331303F4F3783268314C08B01EC01FB010084CD
S1133140F185E02D0995892BE1F6D80116968D912C
S11331509C911797019617969C938E931697CE0180
S1133160DF91CF911F910F910895FA01AA2728307A
S113317051F1203181F1E8946F936E7F6E5F7F4F40
S11331808F4F9F4FAF4FB1E03ED0B4E03CD0670FBC
S1133190781F891F9A1FA11D680F791F8A1F911D0F
S11331A0A11D6A0F711D811D911DA11D20D009F45F
S11331B068943F912AE0269F11243019305D3193A1
S11331C0DEF6CF010895462F4770405D4193B3E08A
S11331D00FD0C9F7F6CF462F4F70405D4A3318F031
S11331E0495D31FD4052419302D0A9F7EACFB4E0E2
S11331F0A6959795879577956795BA95C9F700979A
S11332006105710508959B01AC010A2E069457953A
S1133210479537952795BA95C9F7620F731F841F91
S1133220951FA01D0895DC01CB01FC01F999FECF87
S113323006C0F2BDE1BDF89A319600B40D9241503A
S11332405040B8F70895F999FECF92BD81BDF89A20
S1133250992780B50895DC01CB0103C02D910E940C
S1133260361941505040D0F70895262FF999FECFD2
S11332701FBA92BD81BD20BD0FB6F894FA9AF99A8F
S11332800FBE019608952F923F924F925F926F92D4
S11332907F928F929F92AF92BF92CF92DF92EF92E2
S11332A0FF920F931F93CF93DF93CDB7DEB7CA1B63
S11332B0DB0B0FB6F894DEBF0FBECDBF09942A888E
S11332C0398848885F846E847D848C849B84AA8436
S11332D0B984C884DF80EE80FD800C811B81AA81C3
S11332E0B981CE0FD11D0FB6F894DEBF0FBECDBF8E
S10B32F0ED010895F894FFCFED
S11332F80000803F0000803F0125346420202534ED
S10D33086420202534640D0A00003F
S9030000FC
